:10059D008B807F017E001205C4D2A27F057E0012E2
:1005AD0005C4C2A2EBC454F0F5807F017E00120594
:0705BD00C4D2A27F057E00FD
:1005C4007C007D0C1206EAD3EF9400EE9400400FF9
:0F05D4007DC77C01DCFEDDFAEF1F70EB1E80E8B7
:0105E30022F5
:0C070A00AB07C2A2C2A312059DC2A2222E
:0C071600AB07C2A2D2A312059DC2A22212
:100688007F3212070A7F2812070A7F0C12070A7F97
:0E0698000612070A7F0112070A7F8002070A76
:0E06FC0081838587898B8D80828486888A8C95
:090722000710000012300102185A
:1005E400C2B300C2B500D2B300E4FEEF1392B4EF7D
:1005F400C313FFD2B500C2B5000EBE08EEE4FEED93
:100604001392B4EDC313FDD2B500C2B5000EBE08FB
:04061400EEC2B3007F
:0106180022BF
:10055300C2B300C2B500D2B300E4FDEF1392B4EF0F
:10056300C313FFD2B500C2B5000DBD08EE00E4FD14
:10057300A2B4E433FFC43333335480FCEEC3134CCF
:10058300FED2B500C2B5000DBD08E5C2B300D2B5B9
:0905930000C2B400D2B400AF06AE
:01059C00223C
:10066500E4FD7F8E1205E4E4FCEC90070393FF7430
:10067500102CF8E6FD1205E40CBC07ED7D807F8E9D
:030685000205E487
:1006C200E4FBEB9006FC93FF12055374102BF8A683
:0506D200070BBB07ED62
:0106D7002200
:1006A6004D4F4E005455450057454400544855009B
:0C06B600465249005341540053554E0079
:10034C001204E22000030203D81206C21202A11208
:10035C000003E510C4540F75F00AA4FFE510540F08
:10036C002FF509E511C4540F75F00AA4FFE51154DB
:10037C000F2FF50AE512C4540F75F00AA4FFE5120D
:10038C00540F2FF50BE513C4540F75F00AA4FFE5B9
:10039C0013540F2FF50DE514C4540F75F00AA4FF78
:1003AC00E514540F2FF50CE515C4540F75F00AA481
:1003BC00FFE515540F2FF50EE516C4540F75F00A12
:1003CC00A4FFE516540F2FF50802034F300003026B
:0703DC00034F12000380F53E
:1002A1007FC412070AE512C4540F2430FF12071647
:1002B100E512540F2430FF1207167F3A120716E594
:1002C10011C4540F2430FF120716E511540F2430C6
:1002D100FF1207167F3A120716E510C4540F243097
:1002E100FF120716E510540F2430FF1207167F8105
:1002F10012070A7F321207167F30120716E516C45D
:10030100540F2430FF120716E516540F2430FF1244
:1003110007167F2D120716E514C4540F2430FF125F
:100321000716E514540F2430FF1207167F2D12070C
:1003310016E513C4540F2430FF120716E513540FAA
:0B0341002430FF120716AF1502046FF6
:1006D800EFD39400400B7E267D82DDFEDEFA1F807C
:0106E800EF22
:0106E90022EE
:0A072C00C2A07F641206D8D2A022FA
:02046F008F17E5
:100471007F8C12070AE4F518E51714B407005057EA
:1004810090048F75F003A4C58325F0C5837302041E
:10049100A40204AB0204B20204B90204C00204C7FC
:1004A1000204CEE5189006A68028E5189006AA80D9
:1004B10021E5189006AE801AE5189006B28013E582
:1004C100189006B6800CE5189006BA8005E51890DC
:1004D10006BE93FF1207160518E518C3940340984A
:0104E10022F8
:1000030030A1030200F47F051206D830A1030200D9
:10001300F4050F30A1FD12072CE50FB4010C7FCAC4
:1000230012070A7F0F12070AC200E50FB402057F09
:10003300C712070AE50FB403057FC412070AE50FC9
:10004300B404057F4C12070AE50FB405057F491276
:10005300070AE50FB406057F4612070AE50FB40742
:10006300057F4312070AE50F640860030200F4F5F5
:100073000F7F0C12070AE4FFEFB407005052900001
:1000830088F828287302009D0200A50200AD020033
:10009300B50200BD0200C50200CD74102FF8A609F9
:1000A300802E74102FF8A60A802674102FF8A60B42
:1000B300801E74102FF8A60D801674102FF8A60C4E
:1000C300800E74102FF8A60E800674102FF8A60861
:1000D30074102FF8E675F00A84FED394004007EEFF
:1000E30075F006A426F60FEF6407708C120665D22E
:1000F30000E50F70030202A030B7030201CF7F05B2
:100103001206D830B7030201CF12072CE50F14B43F
:10011300070040030201CF90012875F003A4C583B3
:1001230025F0C5837302013D0201520201670201FA
:100133007C02018F0201A40201B90509E509B43C5F
:1001430003E4F509AD097F0A1206197FCA807A050F
:100153000AE50AB43C03E4F50AAD0A7F071206195F
:100163007FC78065050BE50BB41803E4F50BAD0BF6
:100173007F041206197FC48050050EE50EB40803F0
:10018300750E01AF0E12046F7F4C803D050DE50D1A
:10019300B42003750D01AD0D7F0912063F7F498021
:1001A30028050CE50CB40D03750C01AD0C7F06128C
:1001B300063F7F4680130508E508B46403E4F508A9
:1001C300AD087F0312063F7F4312070A30B10302D3
:1001D30002A07F051206D830B1030202A012072C39
:1001E300E50F14B4070040030202A09001FC75F070
:1001F30003A4C58325F0C5837302021102022502FD
:10020300023902024D02026002027502028AE50906
:10021300700375093C1509AD097F0A1206197FCAD7
:100223008078E50A7003750A3C150AAD0A7F071248
:1002330006197FC78064E50B7003750B18150BADAA
:100243000B7F041206197FC48050E50EB4010375B9
:100253000E08150EAF0E12046F7F4C803DE50DB4F2
:100263000103750D20150DAD0D7F0912063F7F4962
:100273008028E50CB40103750C0D150CAD0C7F063D
:1002830012063F7F468013E508B401037508641521
:0D02930008AD087F0312063F7F4312070AE3
:0102A000223B
:1004E200E510C4540F75F00AA42510540FF509E560
:1004F20011C4540F75F00AA42511540FF50AE51220
:10050200C4540F75F00AA42512540FF50BE513C459
:10051200540F75F00AA42513540FF50DE514C454B5
:100522000F75F00AA42514540FF50CE515C4540FE9
:1005320075F00AA42515540FF50EE516C4540F756F
:10054200F00AA42516540FF508E4F50FD2000206AE
:010552008820
:10061900ED75F00A84F517ED75F00A8485F018EF89
:1006290024C0FF12070AE5172430FF120716E51840
:060639002430FF02071649
:10063F00ED75F00A84F517ED75F00A8485F018EF63
:10064F002480FF12070AE5172430FF120716E5185A
:06065F002430FF02071623
:030000000203E315
:0C03E300787FE4F6D8FD75812002042A22
:1006EA00EF8DF0A4A8F0CF8CF0A428CE8DF0A42E24
:0206FA00FE22DE
:1003EF0002034CE493A3F8E493A34003F68001F2D5
:1003FF0008DFF48029E493A3F85407240CC8C3330F
:10040F00C4540F4420C8834004F456800146F6DFDD
:10041F00E4800B0102040810204080900722E47E44
:10042F00019360BCA3FF543F30E509541FFEE493D2
:10043F00A360010ECF54C025E060A840B8E493A399
:10044F00FAE493A3F8E493A3C8C582C8CAC583CAC4
:10045F00F0A3C8C582C8CAC583CADFE9DEE780BE7C
:01072B0000CD
:00000001FF
