:0300000002018F6B
:0C018F00787FE4F6D8FD7581110201D6DE
:100006001203CE12034B120328E510700612036981
:100016000200D420B02612039F20B00C050FE50F76
:10002600C394074003E4F50FE511C39432500A2048
:10003600B00712039F051180EFE4F51130B70302F4
:1000460000D412039F20B7727408250FF8067408AF
:10005600250FF8E6540FD394094004740626F67467
:1000660008250FF8E6C394604008E50F9402500295
:10007600E4F67408250FF8E6C394244007E50FB4A8
:100086000202E4F67408250FF8E6C394324007E549
:100096000FB40302E4F67408250FF8E6C394134080
:1000A60007E50FB40402E4F67408250FF8E6C394D6
:1000B600074007E50FB405027601E511C3943250F7
:1000C6000A20B70712039F051180EFE4F51112000D
:0400D600DA02000F3B
:1000DA007FC01203ACE50AC4540F2430FF1203B8E0
:1000EA00E50A540F2430FF1203B87F2D1203B8E536
:1000FA0009C4540F2430FF1203B8E509540F243001
:10010A00FF1203B87F2D1203B8E508C4540F243038
:10011A00FF1203B8E508540F2430FF1203B87F809A
:10012A001203AC7F321203B87F301203B8E50EC453
:10013A00540F2430FF1203B8E50E540F2430FF1277
:10014A0003B87F2D1203B8E50CC4540F2430FF12F4
:10015A0003B8E50C540F2430FF1203B87F2D1203A5
:10016A00B8E50BC4540F2430FF1203B8E50B540F43
:10017A002430FF1203B87F8D1203ACE50D54072417
:05018A0030FF0203B884
:0703CE00D288D2A8D2AF22B1
:0300030002026591
:10026500C0E0C0F0C083C082C0D075D000C000C05F
:1002750001C002C003C004C005C006C00712039F29
:1002850020A1096310FF750F00120328D007D006BF
:10029500D005D004D003D002D001D000D0D0D08278
:0702A500D083D0F0D0E0325D
:0C039F007F017E267D82DDFEDEFADFF6A7
:0103AB00222F
:1002AC008B807F017E001202D3D2A27F057E0012CA
:1002BC0002D3C2A2EBC454F0F5807F017E0012027F
:0702CC00D3D2A27F057E00E2
:1002D3007C007D0C12037FD3EF9400EE9400400F5B
:0F02E3007DC77C01DCFEDDFAEF1F70EB1E80E8AB
:0102F20022E9
:0C03AC00AB07C2A2C2A31202ACC2A22284
:0C03B800AB07C2A2D2A31202ACC2A22268
:10034B007F321203AC7F281203AC7F0C1203AC7FFD
:0E035B00061203AC7F011203AC7F800203ACDC
:0E03910081838587898B8D80828486888A8C03
:0903C400070800001201010213F8
:1002F300C2B300C2B500D2B300E4FEEF1392B4EF71
:10030300C313FFD2B500C2B5000EBE08EEE4FEED86
:100313001392B4EDC313FDD2B500C2B5000EBE08EF
:04032300EEC2B30073
:0103270022B3
:10021B00C2B300C2B500D2B300E4FDEF1392B4EF4A
:10022B00C313FFD2B500C2B5000DBD08EE00E4FD4F
:10023B00A2B4E433FFC43333335480FCEEC3134C0A
:10024B00FED2B500C2B5000DBD08E5C2B300D2B5F4
:09025B0000C2B400D2B400AF06E9
:010264002277
:10032800E4FD7F8E1202F3E4FCEC90039893FF74D3
:10033800082CF8E6FD1202F30CBC07ED7D807F8ED9
:030348000202F3BB
:10036900E4FBEB90039193FF12021B74082BF8A690
:05037900070BBB07EDBE
:01037E00225C
:10019B00020006E493A3F8E493A34003F68001F274
:1001AB0008DFF48029E493A3F85407240CC8C33365
:1001BB00C4540F4420C8834004F456800146F6DF34
:1001CB00E4800B01020408102040809003C4E47EFD
:1001DB00019360BCA3FF543F30E509541FFEE49329
:1001EB00A360010ECF54C025E060A840B8E493A3F0
:1001FB00FAE493A3F8E493A3C8C582C8CAC583CA1B
:10020B00F0A3C8C582C8CAC583CADFE9DEE780BED2
:0103CD00002F
:10037F00EF8DF0A4A8F0CF8CF0A428CE8DF0A42E92
:02038F00FE224C
:00000001FF
