:1007550020323020202D20202D2020202020202058
:10076500002020202020203A20203A202020202070
:1007750020004D4F4E005455450057454400544800
:0E0785005500465249005341540053554E0052
:100526001206011200063007141208FA7F647E00D4
:100536001207D31208FA7FF47E011207D3E516706C
:10054600E2E50A70DE30030F7FC01209127F5212F5
:1005560008F27F691208F230000280237F04120835
:100566007FEF24FF9202A202E4333392027FCD2072
:1005760002161209127F411208F27F6D1208F27FED
:100586000412087F8F14801F1209127F501208F27E
:100596007F6D1208F27F0412087F8F14E51425E0A0
:1005A600F514A2E713F5147F0912087F8F107F0850
:1005B60012087F8F0F7F0712087F8F127F0612089F
:1005C6007F8F157F0212087F8F11E4FF12087F8F3D
:1005D6000DAD0D7F0A1207F5AD117F071207F51253
:1005E60007F1AF1512069112081DAD0F7F0612080E
:0B05F60021AD127F0912082102052927
:0C0873001208F27F6D1208F2EA2404FF64
:10087F00D2B4D2B6D2B5C2B38F90C2B4C2B675904D
:09088F00FFAF80D2B6D2B4D2B39F
:01089800223D
:0F07C4008F807F057E001207D3D2A27F057E00B3
:1007D300D3EF9400EE940040147D7B7C00ED1D70FC
:0D07E300011CED4C70F7EF1F70E61E80E367
:0107F00022E6
:0C08FA00C2A07F647E001207D3D2A022AF
:08091200C2A31207C4C2A22215
:0508ED001208F27F4D2E
:0808F200D2A31207C4C2A22226
:10060100D2AFD2A8D28AC205E4F516C2077D207FF7
:100611000A1207AD7D267F0B1207AD1208497F0B29
:1006210012087F530722EF601E24FE600E24E26051
:100631001024FE7016D203D2008010C203D20080B3
:100641000AD203C2008004C203C200C2A27F3812D0
:1006510009127F0C1209127F061209127F01120979
:10066100127F80120912E4FBEB90075593FF1208E9
:10067100F21207CF0BBB09F07FC0120912E4FBEBAA
:0F06810090076693FF1208F21207CF0BBB0AF027
:010690002247
:0407F100AD147F04C0
:1007F500ED75F00A120899FBED75F00A120899AE2D
:10080500F0AA06EF24C0FF120912EB2430FF1208EC
:08081500F2EA2430FF0208F2B0
:04081D00AD107F0398
:10082100ED75F00A120899FBED75F00A120899AE00
:10083100F0AA06EF2480FF120912EB2430FF120800
:08084100F2EA2430FF0208F284
:02069100AB07B5
:100693007F8C120912E4FAEB14B407005050900651
:1006A300AF75F003A4C58325F0C583730206C402A6
:1006B30006CA0206D00206D60206DC0206E20206DB
:1006C300E8EA9007778022EA90077B801CEA90078C
:1006D3007F8016EA9007838010EA900787800AEAF2
:1006E30090078B8004EA90078F93FF1208F20AEABF
:0406F300640370A389
:0106F70022E0
:1000060030072C30A10930B70630B10320B02012DA
:1000160007CF30A10930B70630B10320B01130A1A7
:10002600FD30B7FA30B1F730B0F41208FAC2073033
:10003600A10302015320B7030201531207CF30A1D7
:100046000302015320B70302015330A1FD1208FA3F
:100056000516E516B40106200003751602300108E0
:10006600E516B40503751609E51614B40900400330
:1000760002015390008775F003A4C58325F0C5835C
:10008600730200A20200B10200B50200B90200BD6F
:100096000200C10200C50200C90200D17FCD1209CB
:1000A600127F0F120912C2040201537FCA80167F03
:1000B600C780127FC4800E7F8C800A7F8980067F6E
:1000C6008680027F83120912020153E4F5167F0C23
:1000D60012091220014D30044A7D847F0B1207ADB0
:1000E600AD0DE4FF1207ADAD117F021207AD200082
:1000F6000CA202E43375F080A42514F514AD147F28
:10010600041207ADAD157F061207ADAD127F0712BB
:1001160007ADAD0F7F081207ADAD107F091207AD11
:10012600120793300127300424AD087F011207AD72
:10013600AD097F031207AD20000CA206E43375F06B
:1001460080A4250CF50CAD0C7F051207ADE51670E5
:100156000302043230B70302043220A10302043240
:100166001207CF30B7030202D420A1030202D4D271
:10017600041208FA30010302025EE51614B4080000
:1001860040030202D490019975F003A4C58325F0BB
:10019600C583730201B10201C40201DA0201EF0252
:1001A600020D02022002023502024AB202200204B5
:1001B6007F4180027F501208ED7FCD020259050D66
:1001C600E50DB43C03E4F50DAD0D7F0A1207F57F8E
:1001D600CA0202590511E511B43C03E4F511AD114B
:1001E6007F071207F57FC7806A051430000AE514F9
:1001F600B4180DE4F5148008E514B40D0375140164
:100206001207F17FC4804C0515E515B40803751572
:1002160001AF151206917F8C80390512E512B420C4
:1002260003751201AD127F091208217F898024050A
:100236000FE50FB40D03750F01AD0F7F06120821F0
:100246007F86800F0510E510B46403E4F5101208EC
:100256001D7F831209128076E51624FE601C146049
:100266002E1460402403705FB2062006047F41808E
:10027600027F501208ED7FCD804A0508E508B43CA0
:1002860003E4F508AD087F0A1207F57FCA80350535
:1002960009E509B43C03E4F509AD097F071207F542
:1002A6007FC78020050C30000AE50CB4180DE4F574
:1002B6000C8008E50CB40D03750C01AD0C7F04121F
:1002C60007F57FC41209127FC87E001207D330B12A
:1002D6000302043220B0030204321207CF30B10306
:1002E60002043220B003020432D2041208FA3001AA
:1002F600030203C3E51614B40800400302042B905E
:10030600031375F003A4C58325F0C5837302032B7D
:1003160002033C02034A02035802037302038702E4
:10032600039D0203B3B2022002047F4180027F5084
:100336001208ED0203E1E50D7003750D3C150DADD8
:100346000D0203F0E511700375113C1511AD110294
:10035600040430000DE5146003020421751418022C
:100366000421E514B4010375140D020421E515B446
:1003760001037515081515AF151206917F4C020479
:1003860028E512B401037512201512AD127F091269
:1003960008217F49020428E50FB40103750F0D15E6
:1003A6000FAD0F7F061208217F46020428E5107064
:1003B60003751064151012081D7F438065E5162429
:1003C600FE601C14602D14603E24037058B2062093
:1003D60006047F4180027F501208ED7FCD8043E501
:1003E60008700375083C1508AD087F0A1207F57FEB
:1003F600CA802FE509700375093C1509AD097F0709
:100406001207F57FC7801B300009E514700D7514BF
:10041600188008E514B4010375140D15141207F1BC
:100426007FC41209127FC87E001207D330B00302C0
:1004360004CB20B1030204CB1207CF30B003020471
:10044600CB20B1030204CBB20530B0FD1208FA206E
:100456000526E4F50AC2017FC21209127F2012089E
:10046600F27F201208F220030F7FC01209127F20AC
:100476001208F27F201208F230054A750A01D201ED
:100486001208BB7FC01209127F521208F27F69124E
:1004960008F27F411208F27F441208F2AD0C7F0485
:1004A6001207F5AD097F071207F5AD087F0A120797
:1004B600F52000117FCD1209122006047F4180022B
:1004C6007F501208ED20A11F20B71C1207CF20A1D4
:1004D6001620B71330A1FD30B7FA1208FAB200128F
:1004E6000793E4FF1206F820B13520B0321207CF89
:1004F60020B11120B00E30B1FD30B0FA1208FAB2B8
:10050600031207937FC01209122003097F201208E5
:0F051600F27F2080077F521208F27F691208F2ED
:0105250022B3
:10079300751804A203E433C43354E02518FFA20000
:0A07A300E43325E02FF518FD7F0B6D
:1007AD00C2B3D2B4D2B6D2B58F90C2B4C2B58D9009
:0707BD00D2B5D2B4D2B32281
:10084900E4FDFF1207AD0F1207AD0F1207AD0F122E
:1008590007AD0F1207AD0F1207AD0F1207AD0F123B
:0A08690007AD0F1207AD0F0207AD37
:1008BB007F0112087F8F087F0312087F8F097F014A
:0D08CB001206F885130CE50B24FF9206229F
:0206F800AA074F
:1006FA00E4F513F50B7F0B12087F530702EF24FE74
:10070A006008240270067B018002E4FBEB6401703E
:10071A003412087B8F0B530B80E50B7FCD700E12C2
:10072A0009127F411208738F13E4F50B2212091282
:10073A007F501208738F13E51325E0F513C313F5E1
:0A074A0013750B012212087B8F13B8
:010754002282
:030003000208D818
:0708D800C0D075D000C0077D
:0908DF00D2077F0C12087F8F176D
:0508E800D007D0D03262
:03000000020906EC
:0C090600787FE4F6D8FD758120020526FC
:10089900C2D530F707B2D563F0FF05F030E70CB2E7
:1008A900D5F4048463F0FF05F080018430D502F4A7
:0208B900042217
:00000001FF
