:1005330020323020202D20202D202020202020009C
:0D0543002020202020203A20203A202000F7
:09047E007F541205727F057E0017
:10048700D3EF9400EE940040147D6E7C00ED1D7058
:0D049700011CED4C70F7EF1F70E61E80E3B6
:0104A4002235
:0C05CF00C2A07F647E00120487D2A0222C
:1005AE00C2A6C2A58F80120483D2A7120483C2A74B
:0105BE00221A
:08056A00FF1205AEEB2430FF87
:10057200D2A6C2A58F80120483D2A7120483C2A777
:010582002256
:10041000D2AFD2AAD28AC200E4F514F515750F0145
:10042000C2A77D207F0A1204FA7D267F0B1204FAF0
:100430001205BF7F381205AE7F0C1205AE7F061283
:1004400005AE7F011205AE7F801205AEE4FBEB9096
:10045000053393FF1205727F017E001204870BBBE8
:100460000FEC7FC01205AEE4FBEB90054393FF1247
:0D04700005727F017E001204870BBB0BECB0
:01047D00225C
:0404A500AD0C7F0A11
:1004A900ED75F00A120511FBED75F00A120511AE92
:1004B900F0AA06EF24C012056AEA2430FF02057289
:0404C900AD127F09E8
:1004CD00ED75F00A120511FBED75F00A120511AE6E
:1004DD00F0AA06EF248012056AEA2430FF020572A5
:1002FD00AB077F8C1205AEEB14B40700400302036D
:10030D008D90031C75F003A4C58325F0C58373027E
:10031D00033102033B020348020356020362020348
:10032D007002037E7F4D1204807F4F0203851204FD
:10033D007E7F551204807F4502038A7F5712048009
:10034D007F451204807F44803412047E7F4812045E
:10035D00807F5580287F461204807F521204807F53
:10036D0049801A7F531204807F411204807F54808C
:10037D000C7F531204807F551204807F4E1205723C
:01038D00224D
:1000060030012C30A40930A30630A20320A120120F
:10001600048330A40930A30630A20320A11130A422
:10002600FD30A3FA30A2F730A1F41205CFC2013099
:10003600A4030200EA12048330A4030200EA0515B1
:10004600300008E515B40403751501750A0130A4DE
:10005600FD1205CFE51514B4080040030200EA902E
:10006600007375F003A4C58325F0C5837302008B66
:1000760002009402009802009C0200A00200A40262
:1000860000A80200AF7FCA1205AE7F0F80167FC799
:1000960080127FC4800E7F8C800A7F8980067F86CF
:1000A60080027F831205AE803BE4F5157F0C1205B6
:1000B600AEE4F50AAD0CFF1204FAAD117F0212048C
:1000C600FAAD137F041204FAAD0F7F061204FAADDF
:1000D600127F071204FAAD0D7F081204FAAD107FE5
:1000E600091204FAE515700302028730A303020120
:1000F600C27F017E0012048730A3030201C230A32F
:10010600FD1205CFE51514B4070040030201C290A5
:10011600012375F003A4C58325F0C5837302013856
:1001260002014902015E0201730201860201970281
:1001360001AC050CE50CB43C03E4F50C1204A57FF8
:10014600CA80760511E511B43C03E4F511AD117FC3
:10015600071204A97FC780610513E513B41803E4E9
:10016600F513AD137F041204A97FC4804C050FE577
:100176000FB40803750F01AF0F1202FD7F8C803993
:100186000512E512B420037512011204C97F898095
:1001960028050DE50DB40D03750D01AD0D7F061295
:1001A60004CD7F8680130510E510B46403E4F510D2
:1001B600AD107F031204CD7F831205AE30A2030279
:1001C60002877F017E0012048730A2030202873075
:1001D600A2FD1205CFE51514B407004003020287FD
:1001E6009001F475F003A4C58325F0C5837302025C
:1001F6000902021A02022F0202440202530202609C
:10020600020271150CE50CB4FF03750C3B1204A534
:100216007FCA806A1511E511B4FF0375113BAD1154
:100226007F071204A97FC780551513E513B4FF0392
:10023600751317AD137F041204A97FC48040D50F30
:1002460003750F07AF0F1202FD7F8C8031D51203A5
:1002560075121F1204C97F898024D50D03750D0CF4
:10026600AD0D7F061204CD7F8680131510E510B400
:10027600FF03751063AD107F031204CD7F83120553
:10028600AE20A17212048320A16CB20030A1FD122F
:1002960005CF20002CE4F50A7FC01205AE7F2012A0
:1002A60005727F201205727F0C1205AEAD0C7F0120
:1002B6001204FAAD117F031204FAAD137F0502048E
:1002C600FA12058385080C850911850B137FC01268
:1002D60005AE7F521205727F691205727FC3120541
:1002E600AEAD0B7F041204A9AD097F071204A9ADB8
:0702F600087F0A1204A9228F
:0D04ED000F1204FA0F1204FA0F1204FA0F96
:1004FA00C2B4D2B5D2B7D2B68F90C2B5C2B68D90B9
:07050A00D2B6D2B5D2B42233
:10055000D2B5D2B7D2B6C2B48F90C2B5C2B7759079
:09056000FFAF90D2B7D2B5D2B4BE
:01056900226F
:1005BF00E4FDFF1204FA1204ED1204ED0F0204FA27
:100583007F011205508F087F031205508F097F05E5
:060593001205508F0B223F
:10038E001204101200063001141205CF7F647E0095
:10039E001204871205CF7FF47E01120487E50A70DE
:1003AE00E22000DF1200067F091205508F107F0831
:1003BE001205508F0D7F071205508F127F06120502
:1003CE00508F0F7F041205508F137F021205508F2E
:1003DE0011E4FF1205508F0C1204A5AD117F071208
:1003EE0004A9AD137F041204A9AF0F1202FDAD10C4
:1003FE007F031204CDAD0D7F061204CD1204C90287
:02040E00039158
:030003000205995A
:07059900C0D075D000C007BF
:0905A000D2017F0C1205508F16E8
:0505A900D007D0D032A4
:030000000205DB1B
:0C05DB00787FE4F6D8FD75812002038EC5
:10051100C2D530F707B2D563F0FF05F030E70CB272
:10052100D5F4048463F0FF05F080018430D502F432
:020531000422A2
:00000001FF
