:10008B0049204C4F5645204D43552100544F205984
:06009B00752050656900AC
:100003001200757F801200ADE4F508E50890008BBF
:1000130093FF1200B51200530508E508C3940B4083
:10002300EA7FC01200ADE4F508E50890009793FF5E
:100033001200B51200530508E508C3940940EA808D
:01004300FEBE
:10004400C2A7C2A58F807F057E00120057D2A77F6A
:03005400057E0026
:10005700D3EF9400EE940040147D7B7C00ED1D707F
:0D006700011CED4C70F7EF1F70E61E80E3EA
:010074002269
:0800AD00C2A6120044C2A72202
:0800B500D2A6120044C2A722EA
:10007500C2A77F381200AD7F0C1200AD7F061200BB
:06008500AD7F010200AD99
:030000000200A15A
:0C00A100787FE4F6D8FD758108020003AA
:00000001FF
